{
  "contractName": "RigNFT",
  "abi": [
    {
      "inputs": [],
      "stateMutability": "nonpayable",
      "type": "constructor"
    },
    {
      "anonymous": false,
      "inputs": [
        {
          "indexed": true,
          "internalType": "address",
          "name": "owner",
          "type": "address"
        },
        {
          "indexed": true,
          "internalType": "address",
          "name": "approved",
          "type": "address"
        },
        {
          "indexed": true,
          "internalType": "uint256",
          "name": "tokenId",
          "type": "uint256"
        }
      ],
      "name": "Approval",
      "type": "event"
    },
    {
      "anonymous": false,
      "inputs": [
        {
          "indexed": true,
          "internalType": "address",
          "name": "owner",
          "type": "address"
        },
        {
          "indexed": true,
          "internalType": "address",
          "name": "operator",
          "type": "address"
        },
        {
          "indexed": false,
          "internalType": "bool",
          "name": "approved",
          "type": "bool"
        }
      ],
      "name": "ApprovalForAll",
      "type": "event"
    },
    {
      "anonymous": false,
      "inputs": [
        {
          "indexed": false,
          "internalType": "string",
          "name": "message",
          "type": "string"
        }
      ],
      "name": "Log",
      "type": "event"
    },
    {
      "anonymous": false,
      "inputs": [
        {
          "indexed": false,
          "internalType": "string",
          "name": "_value",
          "type": "string"
        },
        {
          "indexed": true,
          "internalType": "uint256",
          "name": "_id",
          "type": "uint256"
        }
      ],
      "name": "PermanentURI",
      "type": "event"
    },
    {
      "anonymous": false,
      "inputs": [
        {
          "indexed": true,
          "internalType": "address",
          "name": "from",
          "type": "address"
        },
        {
          "indexed": true,
          "internalType": "address",
          "name": "to",
          "type": "address"
        },
        {
          "indexed": true,
          "internalType": "uint256",
          "name": "tokenId",
          "type": "uint256"
        }
      ],
      "name": "Transfer",
      "type": "event"
    },
    {
      "inputs": [
        {
          "internalType": "address",
          "name": "to",
          "type": "address"
        },
        {
          "internalType": "uint256",
          "name": "tokenId",
          "type": "uint256"
        }
      ],
      "name": "approve",
      "outputs": [],
      "stateMutability": "nonpayable",
      "type": "function"
    },
    {
      "inputs": [
        {
          "internalType": "address",
          "name": "owner",
          "type": "address"
        }
      ],
      "name": "balanceOf",
      "outputs": [
        {
          "internalType": "uint256",
          "name": "",
          "type": "uint256"
        }
      ],
      "stateMutability": "view",
      "type": "function",
      "constant": true
    },
    {
      "inputs": [
        {
          "internalType": "uint256",
          "name": "tokenId",
          "type": "uint256"
        }
      ],
      "name": "getApproved",
      "outputs": [
        {
          "internalType": "address",
          "name": "",
          "type": "address"
        }
      ],
      "stateMutability": "view",
      "type": "function",
      "constant": true
    },
    {
      "inputs": [
        {
          "internalType": "address",
          "name": "owner",
          "type": "address"
        },
        {
          "internalType": "address",
          "name": "operator",
          "type": "address"
        }
      ],
      "name": "isApprovedForAll",
      "outputs": [
        {
          "internalType": "bool",
          "name": "",
          "type": "bool"
        }
      ],
      "stateMutability": "view",
      "type": "function",
      "constant": true
    },
    {
      "inputs": [],
      "name": "name",
      "outputs": [
        {
          "internalType": "string",
          "name": "",
          "type": "string"
        }
      ],
      "stateMutability": "view",
      "type": "function",
      "constant": true
    },
    {
      "inputs": [
        {
          "internalType": "uint256",
          "name": "tokenId",
          "type": "uint256"
        }
      ],
      "name": "ownerOf",
      "outputs": [
        {
          "internalType": "address",
          "name": "",
          "type": "address"
        }
      ],
      "stateMutability": "view",
      "type": "function",
      "constant": true
    },
    {
      "inputs": [
        {
          "internalType": "address",
          "name": "from",
          "type": "address"
        },
        {
          "internalType": "address",
          "name": "to",
          "type": "address"
        },
        {
          "internalType": "uint256",
          "name": "tokenId",
          "type": "uint256"
        }
      ],
      "name": "safeTransferFrom",
      "outputs": [],
      "stateMutability": "nonpayable",
      "type": "function"
    },
    {
      "inputs": [
        {
          "internalType": "address",
          "name": "from",
          "type": "address"
        },
        {
          "internalType": "address",
          "name": "to",
          "type": "address"
        },
        {
          "internalType": "uint256",
          "name": "tokenId",
          "type": "uint256"
        },
        {
          "internalType": "bytes",
          "name": "_data",
          "type": "bytes"
        }
      ],
      "name": "safeTransferFrom",
      "outputs": [],
      "stateMutability": "nonpayable",
      "type": "function"
    },
    {
      "inputs": [
        {
          "internalType": "address",
          "name": "operator",
          "type": "address"
        },
        {
          "internalType": "bool",
          "name": "approved",
          "type": "bool"
        }
      ],
      "name": "setApprovalForAll",
      "outputs": [],
      "stateMutability": "nonpayable",
      "type": "function"
    },
    {
      "inputs": [],
      "name": "symbol",
      "outputs": [
        {
          "internalType": "string",
          "name": "",
          "type": "string"
        }
      ],
      "stateMutability": "view",
      "type": "function",
      "constant": true
    },
    {
      "inputs": [
        {
          "internalType": "uint256",
          "name": "index",
          "type": "uint256"
        }
      ],
      "name": "tokenByIndex",
      "outputs": [
        {
          "internalType": "uint256",
          "name": "",
          "type": "uint256"
        }
      ],
      "stateMutability": "view",
      "type": "function",
      "constant": true
    },
    {
      "inputs": [
        {
          "internalType": "address",
          "name": "owner",
          "type": "address"
        },
        {
          "internalType": "uint256",
          "name": "index",
          "type": "uint256"
        }
      ],
      "name": "tokenOfOwnerByIndex",
      "outputs": [
        {
          "internalType": "uint256",
          "name": "",
          "type": "uint256"
        }
      ],
      "stateMutability": "view",
      "type": "function",
      "constant": true
    },
    {
      "inputs": [],
      "name": "totalSupply",
      "outputs": [
        {
          "internalType": "uint256",
          "name": "",
          "type": "uint256"
        }
      ],
      "stateMutability": "view",
      "type": "function",
      "constant": true
    },
    {
      "inputs": [
        {
          "internalType": "address",
          "name": "from",
          "type": "address"
        },
        {
          "internalType": "address",
          "name": "to",
          "type": "address"
        },
        {
          "internalType": "uint256",
          "name": "tokenId",
          "type": "uint256"
        }
      ],
      "name": "transferFrom",
      "outputs": [],
      "stateMutability": "nonpayable",
      "type": "function"
    },
    {
      "inputs": [
        {
          "internalType": "uint256",
          "name": "tokenId",
          "type": "uint256"
        }
      ],
      "name": "safeMint",
      "outputs": [],
      "stateMutability": "nonpayable",
      "type": "function"
    },
    {
      "inputs": [
        {
          "internalType": "uint256",
          "name": "id",
          "type": "uint256"
        }
      ],
      "name": "periodOf",
      "outputs": [
        {
          "internalType": "uint256",
          "name": "",
          "type": "uint256"
        }
      ],
      "stateMutability": "view",
      "type": "function",
      "constant": true
    },
    {
      "inputs": [
        {
          "internalType": "uint256",
          "name": "id",
          "type": "uint256"
        }
      ],
      "name": "powerOf",
      "outputs": [
        {
          "internalType": "uint256",
          "name": "",
          "type": "uint256"
        }
      ],
      "stateMutability": "view",
      "type": "function",
      "constant": true
    },
    {
      "inputs": [],
      "name": "existingRigs",
      "outputs": [
        {
          "internalType": "uint256[]",
          "name": "",
          "type": "uint256[]"
        }
      ],
      "stateMutability": "view",
      "type": "function",
      "constant": true
    },
    {
      "inputs": [],
      "name": "existingRigsTotal",
      "outputs": [
        {
          "internalType": "uint256",
          "name": "",
          "type": "uint256"
        }
      ],
      "stateMutability": "view",
      "type": "function",
      "constant": true
    },
    {
      "inputs": [
        {
          "internalType": "bytes4",
          "name": "interfaceId",
          "type": "bytes4"
        }
      ],
      "name": "supportsInterface",
      "outputs": [
        {
          "internalType": "bool",
          "name": "",
          "type": "bool"
        }
      ],
      "stateMutability": "view",
      "type": "function",
      "constant": true
    },
    {
      "inputs": [
        {
          "internalType": "uint256",
          "name": "tokenId",
          "type": "uint256"
        }
      ],
      "name": "tokenURI",
      "outputs": [
        {
          "internalType": "string",
          "name": "",
          "type": "string"
        }
      ],
      "stateMutability": "view",
      "type": "function",
      "constant": true
    }
  ],
  "bytecode": "0x60a06040523480156200001157600080fd5b506040518060400160405280600681526020017f5269674e465400000000000000000000000000000000000000000000000000008152506040518060400160405280600381526020017f5249470000000000000000000000000000000000000000000000000000000000815250816000908051906020019062000096929190620000ef565b508060019080519060200190620000af929190620000ef565b5050503373ffffffffffffffffffffffffffffffffffffffff1660808173ffffffffffffffffffffffffffffffffffffffff1660601b8152505062000204565b828054620000fd906200019f565b90600052602060002090601f0160209004810192826200012157600085556200016d565b82601f106200013c57805160ff19168380011785556200016d565b828001600101855582156200016d579182015b828111156200016c5782518255916020019190600101906200014f565b5b5090506200017c919062000180565b5090565b5b808211156200019b57600081600090555060010162000181565b5090565b60006002820490506001821680620001b857607f821691505b60208210811415620001cf57620001ce620001d5565b5b50919050565b7f4e487b7100000000000000000000000000000000000000000000000000000000600052602260045260246000fd5b60805160601c613ea362000223600039600061098f0152613ea36000f3fe608060405234801561001057600080fd5b50600436106101375760003560e01c80634f6ccce7116100b8578063a22cb4651161007c578063a22cb46514610374578063b88d4fde14610390578063c87b56dd146103ac578063c965996e146103dc578063e985e9c5146103fa578063f8549af91461042a57610137565b80634f6ccce7146102a85780636352211e146102d857806370a082311461030857806387c5f7b51461033857806395d89b411461035657610137565b806318160ddd116100ff57806318160ddd1461020657806323b872dd146102245780632f745c591461024057806331c864e81461027057806342842e0e1461028c57610137565b806301ffc9a71461013c57806304eaa1131461016c57806306fdde031461019c578063081812fc146101ba578063095ea7b3146101ea575b600080fd5b610156600480360381019061015191906129b3565b61045a565b6040516101639190612f9d565b60405180910390f35b61018660048036038101906101819190612a05565b61046c565b604051610193919061329a565b60405180910390f35b6101a461048c565b6040516101b19190612fb8565b60405180910390f35b6101d460048036038101906101cf9190612a05565b61051e565b6040516101e19190612f14565b60405180910390f35b61020460048036038101906101ff9190612977565b6105a3565b005b61020e6106bb565b60405161021b919061329a565b60405180910390f35b61023e60048036038101906102399190612871565b6106c8565b005b61025a60048036038101906102559190612977565b610728565b604051610267919061329a565b60405180910390f35b61028a60048036038101906102859190612a05565b6107cd565b005b6102a660048036038101906102a19190612871565b610b2c565b005b6102c260048036038101906102bd9190612a05565b610b4c565b6040516102cf919061329a565b60405180910390f35b6102f260048036038101906102ed9190612a05565b610be3565b6040516102ff9190612f14565b60405180910390f35b610322600480360381019061031d919061280c565b610c95565b60405161032f919061329a565b60405180910390f35b610340610d4d565b60405161034d919061329a565b60405180910390f35b61035e610d5a565b60405161036b9190612fb8565b60405180910390f35b61038e6004803603810190610389919061293b565b610dec565b005b6103aa60048036038101906103a591906128c0565b610e02565b005b6103c660048036038101906103c19190612a05565b610e64565b6040516103d39190612fb8565b60405180910390f35b6103e4610e76565b6040516103f19190612f7b565b60405180910390f35b610414600480360381019061040f9190612835565b610ece565b6040516104219190612f9d565b60405180910390f35b610444600480360381019061043f9190612a05565b610f62565b604051610451919061329a565b60405180910390f35b600061046582610f82565b9050919050565b6000600c6000838152602001908152602001600020600001549050919050565b60606000805461049b90613552565b80601f01602080910402602001604051908101604052809291908181526020018280546104c790613552565b80156105145780601f106104e957610100808354040283529160200191610514565b820191906000526020600020905b8154815290600101906020018083116104f757829003601f168201915b5050505050905090565b600061052982610ffc565b610568576040517f08c379a000000000000000000000000000000000000000000000000000000000815260040161055f906131ba565b60405180910390fd5b6004600083815260200190815260200160002060009054906101000a900473ffffffffffffffffffffffffffffffffffffffff169050919050565b60006105ae82610be3565b90508073ffffffffffffffffffffffffffffffffffffffff168373ffffffffffffffffffffffffffffffffffffffff16141561061f576040517f08c379a0000000000000000000000000000000000000000000000000000000008152600401610616906131fa565b60405180910390fd5b8073ffffffffffffffffffffffffffffffffffffffff1661063e611068565b73ffffffffffffffffffffffffffffffffffffffff16148061066d575061066c81610667611068565b610ece565b5b6106ac576040517f08c379a00000000000000000000000000000000000000000000000000000000081526004016106a3906130da565b60405180910390fd5b6106b68383611070565b505050565b6000600880549050905090565b6106d96106d3611068565b82611129565b610718576040517f08c379a000000000000000000000000000000000000000000000000000000000815260040161070f9061323a565b60405180910390fd5b610723838383611207565b505050565b600061073383610c95565b8210610774576040517f08c379a000000000000000000000000000000000000000000000000000000000815260040161076b90612fda565b60405180910390fd5b600660008473ffffffffffffffffffffffffffffffffffffffff1673ffffffffffffffffffffffffffffffffffffffff168152602001908152602001600020600083815260200190815260200160002054905092915050565b60006107d88261146e565b905060006107fe604051806060016040528060368152602001613e38603691398361161b565b9050611388600b8054905010610849576040517f08c379a00000000000000000000000000000000000000000000000000000000081526004016108409061315a565b60405180910390fd5b6001831015801561085c57506113888311155b61089b576040517f08c379a00000000000000000000000000000000000000000000000000000000081526004016108929061327a565b60405180910390fd5b6111948311610974576108ae3384611647565b6108b88382611665565b827fa109ba539900bf1b633f956d63c96fc89b814c7287f7aa50a9216d0b55657207826040516108e89190612fb8565b60405180910390a2620151806108fe60076116d9565b610908919061340e565b600c60008581526020019081526020016000206001018190555061092c60326116d9565b600c600085815260200190815260200160002060000181905550600b839080600181540180825580915050600190039060005260206000200160009091909190915055610b27565b611195831015801561098857506113888311155b15610aeb577f000000000000000000000000000000000000000000000000000000000000000073ffffffffffffffffffffffffffffffffffffffff163373ffffffffffffffffffffffffffffffffffffffff1614610a1b576040517f08c379a0000000000000000000000000000000000000000000000000000000008152600401610a129061321a565b60405180910390fd5b610a253384611647565b610a2f8382611665565b827fa109ba539900bf1b633f956d63c96fc89b814c7287f7aa50a9216d0b5565720782604051610a5f9190612fb8565b60405180910390a262015180610a7560036116d9565b610a7f919061340e565b600c600085815260200190815260200160002060010181905550610aa3601e6116d9565b600c600085815260200190815260200160002060000181905550600b839080600181540180825580915050600190039060005260206000200160009091909190915055610b26565b6040517f08c379a0000000000000000000000000000000000000000000000000000000008152600401610b1d9061305a565b60405180910390fd5b5b505050565b610b4783838360405180602001604052806000815250610e02565b505050565b6000610b566106bb565b8210610b97576040517f08c379a0000000000000000000000000000000000000000000000000000000008152600401610b8e9061325a565b60405180910390fd5b60088281548110610bd1577f4e487b7100000000000000000000000000000000000000000000000000000000600052603260045260246000fd5b90600052602060002001549050919050565b6000806002600084815260200190815260200160002060009054906101000a900473ffffffffffffffffffffffffffffffffffffffff169050600073ffffffffffffffffffffffffffffffffffffffff168173ffffffffffffffffffffffffffffffffffffffff161415610c8c576040517f08c379a0000000000000000000000000000000000000000000000000000000008152600401610c839061311a565b60405180910390fd5b80915050919050565b60008073ffffffffffffffffffffffffffffffffffffffff168273ffffffffffffffffffffffffffffffffffffffff161415610d06576040517f08c379a0000000000000000000000000000000000000000000000000000000008152600401610cfd906130fa565b60405180910390fd5b600360008373ffffffffffffffffffffffffffffffffffffffff1673ffffffffffffffffffffffffffffffffffffffff168152602001908152602001600020549050919050565b6000600b80549050905090565b606060018054610d6990613552565b80601f0160208091040260200160405190810160405280929190818152602001828054610d9590613552565b8015610de25780601f10610db757610100808354040283529160200191610de2565b820191906000526020600020905b815481529060010190602001808311610dc557829003601f168201915b5050505050905090565b610dfe610df7611068565b8383611731565b5050565b610e13610e0d611068565b83611129565b610e52576040517f08c379a0000000000000000000000000000000000000000000000000000000008152600401610e499061323a565b60405180910390fd5b610e5e8484848461189e565b50505050565b6060610e6f826118fa565b9050919050565b6060600b805480602002602001604051908101604052809291908181526020018280548015610ec457602002820191906000526020600020905b815481526020019060010190808311610eb0575b5050505050905090565b6000600560008473ffffffffffffffffffffffffffffffffffffffff1673ffffffffffffffffffffffffffffffffffffffff16815260200190815260200160002060008373ffffffffffffffffffffffffffffffffffffffff1673ffffffffffffffffffffffffffffffffffffffff16815260200190815260200160002060009054906101000a900460ff16905092915050565b6000600c6000838152602001908152602001600020600101549050919050565b60007f780e9d63000000000000000000000000000000000000000000000000000000007bffffffffffffffffffffffffffffffffffffffffffffffffffffffff1916827bffffffffffffffffffffffffffffffffffffffffffffffffffffffff19161480610ff55750610ff482611a4c565b5b9050919050565b60008073ffffffffffffffffffffffffffffffffffffffff166002600084815260200190815260200160002060009054906101000a900473ffffffffffffffffffffffffffffffffffffffff1673ffffffffffffffffffffffffffffffffffffffff1614159050919050565b600033905090565b816004600083815260200190815260200160002060006101000a81548173ffffffffffffffffffffffffffffffffffffffff021916908373ffffffffffffffffffffffffffffffffffffffff160217905550808273ffffffffffffffffffffffffffffffffffffffff166110e383610be3565b73ffffffffffffffffffffffffffffffffffffffff167f8c5be1e5ebec7d5bd14f71427d1e84f3dd0314c0f7b2291e5b200ac8c7c3b92560405160405180910390a45050565b600061113482610ffc565b611173576040517f08c379a000000000000000000000000000000000000000000000000000000000815260040161116a906130ba565b60405180910390fd5b600061117e83610be3565b90508073ffffffffffffffffffffffffffffffffffffffff168473ffffffffffffffffffffffffffffffffffffffff1614806111ed57508373ffffffffffffffffffffffffffffffffffffffff166111d58461051e565b73ffffffffffffffffffffffffffffffffffffffff16145b806111fe57506111fd8185610ece565b5b91505092915050565b8273ffffffffffffffffffffffffffffffffffffffff1661122782610be3565b73ffffffffffffffffffffffffffffffffffffffff161461127d576040517f08c379a00000000000000000000000000000000000000000000000000000000081526004016112749061301a565b60405180910390fd5b600073ffffffffffffffffffffffffffffffffffffffff168273ffffffffffffffffffffffffffffffffffffffff1614156112ed576040517f08c379a00000000000000000000000000000000000000000000000000000000081526004016112e49061307a565b60405180910390fd5b6112f8838383611b2e565b611303600082611070565b6001600360008573ffffffffffffffffffffffffffffffffffffffff1673ffffffffffffffffffffffffffffffffffffffff16815260200190815260200160002060008282546113539190613468565b925050819055506001600360008473ffffffffffffffffffffffffffffffffffffffff1673ffffffffffffffffffffffffffffffffffffffff16815260200190815260200160002060008282546113aa9190613387565b92505081905550816002600083815260200190815260200160002060006101000a81548173ffffffffffffffffffffffffffffffffffffffff021916908373ffffffffffffffffffffffffffffffffffffffff160217905550808273ffffffffffffffffffffffffffffffffffffffff168473ffffffffffffffffffffffffffffffffffffffff167fddf252ad1be2c89b69c2b068fc378daa952ba7f163c4a11628f55a4df523b3ef60405160405180910390a4611469838383611b3e565b505050565b606060008214156114b6576040518060400160405280600181526020017f30000000000000000000000000000000000000000000000000000000000000008152509050611616565b600082905060005b600082146114e85780806114d1906135b5565b915050600a826114e191906133dd565b91506114be565b60008167ffffffffffffffff81111561152a577f4e487b7100000000000000000000000000000000000000000000000000000000600052604160045260246000fd5b6040519080825280601f01601f19166020018201604052801561155c5781602001600182028036833780820191505090505b5090505b6000851461160f576001826115759190613468565b9150600a85611584919061362c565b60306115909190613387565b60f81b8183815181106115cc577f4e487b7100000000000000000000000000000000000000000000000000000000600052603260045260246000fd5b60200101907effffffffffffffffffffffffffffffffffffffffffffffffffffffffffffff1916908160001a905350600a8561160891906133dd565b9450611560565b8093505050505b919050565b60608282604051602001611630929190612eb3565b604051602081830303815290604052905092915050565b611661828260405180602001604052806000815250611b43565b5050565b61166e82610ffc565b6116ad576040517f08c379a00000000000000000000000000000000000000000000000000000000081526004016116a49061313a565b60405180910390fd5b80600a600084815260200190815260200160002090805190602001906116d4929190612698565b505050565b600080824442336040516020016116f293929190612ed7565b6040516020818303038152906040528051906020012060001c611715919061362c565b90506001811015611727576001611729565b805b915050919050565b8173ffffffffffffffffffffffffffffffffffffffff168373ffffffffffffffffffffffffffffffffffffffff1614156117a0576040517f08c379a00000000000000000000000000000000000000000000000000000000081526004016117979061309a565b60405180910390fd5b80600560008573ffffffffffffffffffffffffffffffffffffffff1673ffffffffffffffffffffffffffffffffffffffff16815260200190815260200160002060008473ffffffffffffffffffffffffffffffffffffffff1673ffffffffffffffffffffffffffffffffffffffff16815260200190815260200160002060006101000a81548160ff0219169083151502179055508173ffffffffffffffffffffffffffffffffffffffff168373ffffffffffffffffffffffffffffffffffffffff167f17307eab39ab6107e8899845ad3d59bd9653f200f220920489ca2b5937696c31836040516118919190612f9d565b60405180910390a3505050565b6118a9848484611207565b6118b584848484611b9e565b6118f4576040517f08c379a00000000000000000000000000000000000000000000000000000000081526004016118eb90612ffa565b60405180910390fd5b50505050565b606061190582610ffc565b611944576040517f08c379a000000000000000000000000000000000000000000000000000000000815260040161193b9061319a565b60405180910390fd5b6000600a6000848152602001908152602001600020805461196490613552565b80601f016020809104026020016040519081016040528092919081815260200182805461199090613552565b80156119dd5780601f106119b2576101008083540402835291602001916119dd565b820191906000526020600020905b8154815290600101906020018083116119c057829003601f168201915b5050505050905060006119ee611d35565b9050600081511415611a04578192505050611a47565b600082511115611a39578082604051602001611a21929190612eb3565b60405160208183030381529060405292505050611a47565b611a4284611d4c565b925050505b919050565b60007f80ac58cd000000000000000000000000000000000000000000000000000000007bffffffffffffffffffffffffffffffffffffffffffffffffffffffff1916827bffffffffffffffffffffffffffffffffffffffffffffffffffffffff19161480611b1757507f5b5e139f000000000000000000000000000000000000000000000000000000007bffffffffffffffffffffffffffffffffffffffffffffffffffffffff1916827bffffffffffffffffffffffffffffffffffffffffffffffffffffffff1916145b80611b275750611b2682611df3565b5b9050919050565b611b39838383611e5d565b505050565b505050565b611b4d8383611f71565b611b5a6000848484611b9e565b611b99576040517f08c379a0000000000000000000000000000000000000000000000000000000008152600401611b9090612ffa565b60405180910390fd5b505050565b6000611bbf8473ffffffffffffffffffffffffffffffffffffffff1661214b565b15611d28578373ffffffffffffffffffffffffffffffffffffffff1663150b7a02611be8611068565b8786866040518563ffffffff1660e01b8152600401611c0a9493929190612f2f565b602060405180830381600087803b158015611c2457600080fd5b505af1925050508015611c5557506040513d601f19601f82011682018060405250810190611c5291906129dc565b60015b611cd8573d8060008114611c85576040519150601f19603f3d011682016040523d82523d6000602084013e611c8a565b606091505b50600081511415611cd0576040517f08c379a0000000000000000000000000000000000000000000000000000000008152600401611cc790612ffa565b60405180910390fd5b805181602001fd5b63150b7a0260e01b7bffffffffffffffffffffffffffffffffffffffffffffffffffffffff1916817bffffffffffffffffffffffffffffffffffffffffffffffffffffffff191614915050611d2d565b600190505b949350505050565b606060405180602001604052806000815250905090565b6060611d5782610ffc565b611d96576040517f08c379a0000000000000000000000000000000000000000000000000000000008152600401611d8d906131da565b60405180910390fd5b6000611da0611d35565b90506000815111611dc05760405180602001604052806000815250611deb565b80611dca8461216e565b604051602001611ddb929190612eb3565b6040516020818303038152906040525b915050919050565b60007f01ffc9a7000000000000000000000000000000000000000000000000000000007bffffffffffffffffffffffffffffffffffffffffffffffffffffffff1916827bffffffffffffffffffffffffffffffffffffffffffffffffffffffff1916149050919050565b611e6883838361231b565b600073ffffffffffffffffffffffffffffffffffffffff168373ffffffffffffffffffffffffffffffffffffffff161415611eab57611ea681612320565b611eea565b8173ffffffffffffffffffffffffffffffffffffffff168373ffffffffffffffffffffffffffffffffffffffff1614611ee957611ee88382612369565b5b5b600073ffffffffffffffffffffffffffffffffffffffff168273ffffffffffffffffffffffffffffffffffffffff161415611f2d57611f28816124d6565b611f6c565b8273ffffffffffffffffffffffffffffffffffffffff168273ffffffffffffffffffffffffffffffffffffffff1614611f6b57611f6a8282612619565b5b5b505050565b600073ffffffffffffffffffffffffffffffffffffffff168273ffffffffffffffffffffffffffffffffffffffff161415611fe1576040517f08c379a0000000000000000000000000000000000000000000000000000000008152600401611fd89061317a565b60405180910390fd5b611fea81610ffc565b1561202a576040517f08c379a00000000000000000000000000000000000000000000000000000000081526004016120219061303a565b60405180910390fd5b61203660008383611b2e565b6001600360008473ffffffffffffffffffffffffffffffffffffffff1673ffffffffffffffffffffffffffffffffffffffff16815260200190815260200160002060008282546120869190613387565b92505081905550816002600083815260200190815260200160002060006101000a81548173ffffffffffffffffffffffffffffffffffffffff021916908373ffffffffffffffffffffffffffffffffffffffff160217905550808273ffffffffffffffffffffffffffffffffffffffff16600073ffffffffffffffffffffffffffffffffffffffff167fddf252ad1be2c89b69c2b068fc378daa952ba7f163c4a11628f55a4df523b3ef60405160405180910390a461214760008383611b3e565b5050565b6000808273ffffffffffffffffffffffffffffffffffffffff163b119050919050565b606060008214156121b6576040518060400160405280600181526020017f30000000000000000000000000000000000000000000000000000000000000008152509050612316565b600082905060005b600082146121e85780806121d1906135b5565b915050600a826121e191906133dd565b91506121be565b60008167ffffffffffffffff81111561222a577f4e487b7100000000000000000000000000000000000000000000000000000000600052604160045260246000fd5b6040519080825280601f01601f19166020018201604052801561225c5781602001600182028036833780820191505090505b5090505b6000851461230f576001826122759190613468565b9150600a85612284919061362c565b60306122909190613387565b60f81b8183815181106122cc577f4e487b7100000000000000000000000000000000000000000000000000000000600052603260045260246000fd5b60200101907effffffffffffffffffffffffffffffffffffffffffffffffffffffffffffff1916908160001a905350600a8561230891906133dd565b9450612260565b8093505050505b919050565b505050565b6008805490506009600083815260200190815260200160002081905550600881908060018154018082558091505060019003906000526020600020016000909190919091505550565b6000600161237684610c95565b6123809190613468565b9050600060076000848152602001908152602001600020549050818114612465576000600660008673ffffffffffffffffffffffffffffffffffffffff1673ffffffffffffffffffffffffffffffffffffffff168152602001908152602001600020600084815260200190815260200160002054905080600660008773ffffffffffffffffffffffffffffffffffffffff1673ffffffffffffffffffffffffffffffffffffffff168152602001908152602001600020600084815260200190815260200160002081905550816007600083815260200190815260200160002081905550505b6007600084815260200190815260200160002060009055600660008573ffffffffffffffffffffffffffffffffffffffff1673ffffffffffffffffffffffffffffffffffffffff16815260200190815260200160002060008381526020019081526020016000206000905550505050565b600060016008805490506124ea9190613468565b9050600060096000848152602001908152602001600020549050600060088381548110612540577f4e487b7100000000000000000000000000000000000000000000000000000000600052603260045260246000fd5b906000526020600020015490508060088381548110612588577f4e487b7100000000000000000000000000000000000000000000000000000000600052603260045260246000fd5b9060005260206000200181905550816009600083815260200190815260200160002081905550600960008581526020019081526020016000206000905560088054806125fd577f4e487b7100000000000000000000000000000000000000000000000000000000600052603160045260246000fd5b6001900381819060005260206000200160009055905550505050565b600061262483610c95565b905081600660008573ffffffffffffffffffffffffffffffffffffffff1673ffffffffffffffffffffffffffffffffffffffff168152602001908152602001600020600083815260200190815260200160002081905550806007600084815260200190815260200160002081905550505050565b8280546126a490613552565b90600052602060002090601f0160209004810192826126c6576000855561270d565b82601f106126df57805160ff191683800117855561270d565b8280016001018555821561270d579182015b8281111561270c5782518255916020019190600101906126f1565b5b50905061271a919061271e565b5090565b5b8082111561273757600081600090555060010161271f565b5090565b600061274e612749846132da565b6132b5565b90508281526020810184848401111561276657600080fd5b612771848285613510565b509392505050565b60008135905061278881613ddb565b92915050565b60008135905061279d81613df2565b92915050565b6000813590506127b281613e09565b92915050565b6000815190506127c781613e09565b92915050565b600082601f8301126127de57600080fd5b81356127ee84826020860161273b565b91505092915050565b60008135905061280681613e20565b92915050565b60006020828403121561281e57600080fd5b600061282c84828501612779565b91505092915050565b6000806040838503121561284857600080fd5b600061285685828601612779565b925050602061286785828601612779565b9150509250929050565b60008060006060848603121561288657600080fd5b600061289486828701612779565b93505060206128a586828701612779565b92505060406128b6868287016127f7565b9150509250925092565b600080600080608085870312156128d657600080fd5b60006128e487828801612779565b94505060206128f587828801612779565b9350506040612906878288016127f7565b925050606085013567ffffffffffffffff81111561292357600080fd5b61292f878288016127cd565b91505092959194509250565b6000806040838503121561294e57600080fd5b600061295c85828601612779565b925050602061296d8582860161278e565b9150509250929050565b6000806040838503121561298a57600080fd5b600061299885828601612779565b92505060206129a9858286016127f7565b9150509250929050565b6000602082840312156129c557600080fd5b60006129d3848285016127a3565b91505092915050565b6000602082840312156129ee57600080fd5b60006129fc848285016127b8565b91505092915050565b600060208284031215612a1757600080fd5b6000612a25848285016127f7565b91505092915050565b6000612a3a8383612e7e565b60208301905092915050565b612a4f8161349c565b82525050565b612a66612a618261349c565b6135fe565b82525050565b6000612a778261331b565b612a818185613349565b9350612a8c8361330b565b8060005b83811015612abd578151612aa48882612a2e565b9750612aaf8361333c565b925050600181019050612a90565b5085935050505092915050565b612ad3816134ae565b82525050565b6000612ae482613326565b612aee818561335a565b9350612afe81856020860161351f565b612b0781613719565b840191505092915050565b6000612b1d82613331565b612b27818561336b565b9350612b3781856020860161351f565b612b4081613719565b840191505092915050565b6000612b5682613331565b612b60818561337c565b9350612b7081856020860161351f565b80840191505092915050565b6000612b89602b8361336b565b9150612b9482613737565b604082019050919050565b6000612bac60328361336b565b9150612bb782613786565b604082019050919050565b6000612bcf60258361336b565b9150612bda826137d5565b604082019050919050565b6000612bf2601c8361336b565b9150612bfd82613824565b602082019050919050565b6000612c1560148361336b565b9150612c208261384d565b602082019050919050565b6000612c3860248361336b565b9150612c4382613876565b604082019050919050565b6000612c5b60198361336b565b9150612c66826138c5565b602082019050919050565b6000612c7e602c8361336b565b9150612c89826138ee565b604082019050919050565b6000612ca160388361336b565b9150612cac8261393d565b604082019050919050565b6000612cc4602a8361336b565b9150612ccf8261398c565b604082019050919050565b6000612ce760298361336b565b9150612cf2826139db565b604082019050919050565b6000612d0a602e8361336b565b9150612d1582613a2a565b604082019050919050565b6000612d2d60968361336b565b9150612d3882613a79565b60a082019050919050565b6000612d5060208361336b565b9150612d5b82613b3a565b602082019050919050565b6000612d7360318361336b565b9150612d7e82613b63565b604082019050919050565b6000612d96602c8361336b565b9150612da182613bb2565b604082019050919050565b6000612db9602f8361336b565b9150612dc482613c01565b604082019050919050565b6000612ddc60218361336b565b9150612de782613c50565b604082019050919050565b6000612dff60208361336b565b9150612e0a82613c9f565b602082019050919050565b6000612e2260318361336b565b9150612e2d82613cc8565b604082019050919050565b6000612e45602c8361336b565b9150612e5082613d17565b604082019050919050565b6000612e68604f8361336b565b9150612e7382613d66565b606082019050919050565b612e8781613506565b82525050565b612e9681613506565b82525050565b612ead612ea882613506565b613622565b82525050565b6000612ebf8285612b4b565b9150612ecb8284612b4b565b91508190509392505050565b6000612ee38286612e9c565b602082019150612ef38285612e9c565b602082019150612f038284612a55565b601482019150819050949350505050565b6000602082019050612f296000830184612a46565b92915050565b6000608082019050612f446000830187612a46565b612f516020830186612a46565b612f5e6040830185612e8d565b8181036060830152612f708184612ad9565b905095945050505050565b60006020820190508181036000830152612f958184612a6c565b905092915050565b6000602082019050612fb26000830184612aca565b92915050565b60006020820190508181036000830152612fd28184612b12565b905092915050565b60006020820190508181036000830152612ff381612b7c565b9050919050565b6000602082019050818103600083015261301381612b9f565b9050919050565b6000602082019050818103600083015261303381612bc2565b9050919050565b6000602082019050818103600083015261305381612be5565b9050919050565b6000602082019050818103600083015261307381612c08565b9050919050565b6000602082019050818103600083015261309381612c2b565b9050919050565b600060208201905081810360008301526130b381612c4e565b9050919050565b600060208201905081810360008301526130d381612c71565b9050919050565b600060208201905081810360008301526130f381612c94565b9050919050565b6000602082019050818103600083015261311381612cb7565b9050919050565b6000602082019050818103600083015261313381612cda565b9050919050565b6000602082019050818103600083015261315381612cfd565b9050919050565b6000602082019050818103600083015261317381612d20565b9050919050565b6000602082019050818103600083015261319381612d43565b9050919050565b600060208201905081810360008301526131b381612d66565b9050919050565b600060208201905081810360008301526131d381612d89565b9050919050565b600060208201905081810360008301526131f381612dac565b9050919050565b6000602082019050818103600083015261321381612dcf565b9050919050565b6000602082019050818103600083015261323381612df2565b9050919050565b6000602082019050818103600083015261325381612e15565b9050919050565b6000602082019050818103600083015261327381612e38565b9050919050565b6000602082019050818103600083015261329381612e5b565b9050919050565b60006020820190506132af6000830184612e8d565b92915050565b60006132bf6132d0565b90506132cb8282613584565b919050565b6000604051905090565b600067ffffffffffffffff8211156132f5576132f46136ea565b5b6132fe82613719565b9050602081019050919050565b6000819050602082019050919050565b600081519050919050565b600081519050919050565b600081519050919050565b6000602082019050919050565b600082825260208201905092915050565b600082825260208201905092915050565b600082825260208201905092915050565b600081905092915050565b600061339282613506565b915061339d83613506565b9250827fffffffffffffffffffffffffffffffffffffffffffffffffffffffffffffffff038211156133d2576133d161365d565b5b828201905092915050565b60006133e882613506565b91506133f383613506565b9250826134035761340261368c565b5b828204905092915050565b600061341982613506565b915061342483613506565b9250817fffffffffffffffffffffffffffffffffffffffffffffffffffffffffffffffff048311821515161561345d5761345c61365d565b5b828202905092915050565b600061347382613506565b915061347e83613506565b9250828210156134915761349061365d565b5b828203905092915050565b60006134a7826134e6565b9050919050565b60008115159050919050565b60007fffffffff0000000000000000000000000000000000000000000000000000000082169050919050565b600073ffffffffffffffffffffffffffffffffffffffff82169050919050565b6000819050919050565b82818337600083830152505050565b60005b8381101561353d578082015181840152602081019050613522565b8381111561354c576000848401525b50505050565b6000600282049050600182168061356a57607f821691505b6020821081141561357e5761357d6136bb565b5b50919050565b61358d82613719565b810181811067ffffffffffffffff821117156135ac576135ab6136ea565b5b80604052505050565b60006135c082613506565b91507fffffffffffffffffffffffffffffffffffffffffffffffffffffffffffffffff8214156135f3576135f261365d565b5b600182019050919050565b600061360982613610565b9050919050565b600061361b8261372a565b9050919050565b6000819050919050565b600061363782613506565b915061364283613506565b9250826136525761365161368c565b5b828206905092915050565b7f4e487b7100000000000000000000000000000000000000000000000000000000600052601160045260246000fd5b7f4e487b7100000000000000000000000000000000000000000000000000000000600052601260045260246000fd5b7f4e487b7100000000000000000000000000000000000000000000000000000000600052602260045260246000fd5b7f4e487b7100000000000000000000000000000000000000000000000000000000600052604160045260246000fd5b6000601f19601f8301169050919050565b60008160601b9050919050565b7f455243373231456e756d657261626c653a206f776e657220696e646578206f7560008201527f74206f6620626f756e6473000000000000000000000000000000000000000000602082015250565b7f4552433732313a207472616e7366657220746f206e6f6e20455243373231526560008201527f63656976657220696d706c656d656e7465720000000000000000000000000000602082015250565b7f4552433732313a207472616e736665722066726f6d20696e636f72726563742060008201527f6f776e6572000000000000000000000000000000000000000000000000000000602082015250565b7f4552433732313a20746f6b656e20616c7265616479206d696e74656400000000600082015250565b7f536f6d657468696e672077656e742077726f6e67000000000000000000000000600082015250565b7f4552433732313a207472616e7366657220746f20746865207a65726f2061646460008201527f7265737300000000000000000000000000000000000000000000000000000000602082015250565b7f4552433732313a20617070726f766520746f2063616c6c657200000000000000600082015250565b7f4552433732313a206f70657261746f7220717565727920666f72206e6f6e657860008201527f697374656e7420746f6b656e0000000000000000000000000000000000000000602082015250565b7f4552433732313a20617070726f76652063616c6c6572206973206e6f74206f7760008201527f6e6572206e6f7220617070726f76656420666f7220616c6c0000000000000000602082015250565b7f4552433732313a2062616c616e636520717565727920666f7220746865207a6560008201527f726f206164647265737300000000000000000000000000000000000000000000602082015250565b7f4552433732313a206f776e657220717565727920666f72206e6f6e657869737460008201527f656e7420746f6b656e0000000000000000000000000000000000000000000000602082015250565b7f45524337323155524953746f726167653a2055524920736574206f66206e6f6e60008201527f6578697374656e7420746f6b656e000000000000000000000000000000000000602082015250565b7f4f6f70732e2054686572652077696c6c206f6e6c79206576657220626520353060008201527f3030205269677320616e64207468657927766520616c6c206265656e2063726560208201527f617465642e20416c6c2066757475726520617474656d74707320746f2063726560408201527f617465206d6f726520526967732077696c6c206661696c20616e64207265737560608201527f6c7420696e20746865206c6f7373206f66206761732e00000000000000000000608082015250565b7f4552433732313a206d696e7420746f20746865207a65726f2061646472657373600082015250565b7f45524337323155524953746f726167653a2055524920717565727920666f722060008201527f6e6f6e6578697374656e7420746f6b656e000000000000000000000000000000602082015250565b7f4552433732313a20617070726f76656420717565727920666f72206e6f6e657860008201527f697374656e7420746f6b656e0000000000000000000000000000000000000000602082015250565b7f4552433732314d657461646174613a2055524920717565727920666f72206e6f60008201527f6e6578697374656e7420746f6b656e0000000000000000000000000000000000602082015250565b7f4552433732313a20617070726f76616c20746f2063757272656e74206f776e6560008201527f7200000000000000000000000000000000000000000000000000000000000000602082015250565b7f4f6e6c79207468652063726561746f722063616e206d696e742074686573652e600082015250565b7f4552433732313a207472616e736665722063616c6c6572206973206e6f74206f60008201527f776e6572206e6f7220617070726f766564000000000000000000000000000000602082015250565b7f455243373231456e756d657261626c653a20676c6f62616c20696e646578206f60008201527f7574206f6620626f756e64730000000000000000000000000000000000000000602082015250565b7f5468652049442072616e67652069732031202d20353030302e20596f7520656e60008201527f746572656420612076616c7565206f757473696465206f66207468697320726160208201527f6e67652e2054727920616761696e210000000000000000000000000000000000604082015250565b613de48161349c565b8114613def57600080fd5b50565b613dfb816134ae565b8114613e0657600080fd5b50565b613e12816134ba565b8114613e1d57600080fd5b50565b613e2981613506565b8114613e3457600080fd5b5056fe697066733a2f2f516d523666367a684c4e6673453675706b5a6b4a43657553537732534a6f7379335a36614a6741433544514666552fa26469706673582212204160847c9569defdaf01a2825b2b03490fd14635144f38f87f1d0ab945b2d36964736f6c63430008020033",
  "immutableReferences": {
    "2820": [
      {
        "length": 32,
        "start": 2447
      }
    ]
  },
  "source": "// SPDX-License-Identifier: MIT\npragma solidity 0.8.2;\n\nimport \"@openzeppelin/contracts/token/ERC721/ERC721.sol\";\nimport \"@openzeppelin/contracts/token/ERC721/extensions/ERC721URIStorage.sol\";\nimport \"@openzeppelin/contracts/token/ERC721/extensions/ERC721Enumerable.sol\";\n\ncontract RigNFT is ERC721, ERC721Enumerable, ERC721URIStorage {\n    address immutable private creator;\n    constructor() ERC721(\"RigNFT\",\"RIG\"){\n        creator = msg.sender;\n    }\n    event Log (string message);\n    event PermanentURI(string _value, uint256 indexed _id);\n    struct Rig {\n        uint power;\n        uint period;\n    }\n    //store each created id in an array for enumeration\n    uint256 [] private rigIds;\n    mapping(uint256 => Rig) rigs;\n    function safeMint(uint256 tokenId) public {\n\n        string memory id = toString(tokenId);\n        string memory url = append(\"ipfs://QmR6f6zhLNfsE6upkZkJCeuSSw2SJosy3Z6aJgAC5DQFfU/\", id);\n        //5000 rig cap\n        require(rigIds.length < 5000, \"Oops. There will only ever be 5000 Rigs and they've all been created. All future attemtps to create more Rigs will fail and result in the loss of gas.\");\n        require(tokenId >= 1 && tokenId <=5000, \"The ID range is 1 - 5000. You entered a value outside of this range. Try again!\");\n        //public rigs\n        if (tokenId <= 4500) {\n            _safeMint(msg.sender, tokenId);\n            _setTokenURI(tokenId, url);\n            emit PermanentURI(url, tokenId);\n            rigs[tokenId].period = random(7) * 1 days;\n            rigs[tokenId].power = random(50);\n            rigIds.push(tokenId);\n        //creator rigs\n        } else if (tokenId >=4501 && tokenId <= 5000) {\n            require(msg.sender == creator, \"Only the creator can mint these.\");\n            _safeMint(msg.sender, tokenId);\n            _setTokenURI(tokenId, url);\n            emit PermanentURI(url, tokenId);\n            rigs[tokenId].period = random(3) * 1 days;\n            rigs[tokenId].power = random(30);\n            rigIds.push(tokenId);\n        } else {\n            revert(\"Something went wrong\");\n        }\n    }\n    function periodOf(uint256 id) public view returns (uint) {\n        return rigs[id].period;\n    }\n\n    function powerOf(uint256 id) public view returns (uint) {\n        return rigs[id].power;\n    }\n    function existingRigs() public view returns (uint256[] memory) {\n        return rigIds;\n    }\n    function existingRigsTotal() public view returns (uint) {\n        return rigIds.length;\n    }\n    /*\n    *\n    * @notice please read deeper into the following for more info.\n    *\n    * The current block timestamp must be strictly larger than the\n    * timestamp of the last block, but the only guarantee is that\n    * it will be somewhere between the timestamps of two consecutive\n    * blocks in the canonical chain.\n    * https://docs.soliditylang.org/en/latest/units-and-global-variables.html?highlight=block.timestamp\n    */\n    function random(uint number) private view returns (uint) {\n        uint i = uint(keccak256(abi.encodePacked(block.difficulty, block.timestamp, msg.sender))) % number;\n        return i >= 1 ? i : 1;\n    }\n    function append(string memory a, string memory b) internal pure returns (string memory) {\n        return string(abi.encodePacked(a, b));\n    }\n    function toString(uint256 value) internal pure returns (string memory) {\n        // Inspired by OraclizeAPI's implementation - MIT licence\n        // https://github.com/oraclize/ethereum-api/blob/b42146b063c7d6ee1358846c198246239e9360e8/oraclizeAPI_0.4.25.sol\n        if (value == 0) {\n            return \"0\";\n        }\n        uint256 temp = value;\n        uint256 digits;\n        while (temp != 0) {\n            digits++;\n            temp /= 10;\n        }\n        bytes memory buffer = new bytes(digits);\n        while (value != 0) {\n            digits -= 1;\n            buffer[digits] = bytes1(uint8(48 + uint256(value % 10)));\n            value /= 10;\n        }\n        return string(buffer);\n    }\n    // The following functions are overrides required by Solidity.\n    function _beforeTokenTransfer(address from, address to, uint256 tokenId)\n        internal\n        override(ERC721, ERC721Enumerable)\n    {\n        super._beforeTokenTransfer(from, to, tokenId);\n    }\n    function _burn(uint256 tokenId) internal override(ERC721, ERC721URIStorage) {\n        super._burn(tokenId);\n    }\n    function supportsInterface(bytes4 interfaceId)\n        public\n        view\n        override(ERC721, ERC721Enumerable)\n        returns (bool)\n    {\n        return super.supportsInterface(interfaceId);\n    }\n    function tokenURI(uint256 tokenId)\n        public\n        view\n        override(ERC721, ERC721URIStorage)\n        returns (string memory)\n    {\n        return super.tokenURI(tokenId);\n    }\n}\n",
  "sourcePath": "/Users/undefined/Code/rigcoin/contracts/RigNFT.sol",
  "compiler": {
    "name": "solc",
    "version": "0.8.2+commit.661d1103.Emscripten.clang"
  },
  "schemaVersion": "3.4.4",
  "updatedAt": "2022-03-07T14:59:01.442Z",
  "networkType": "ethereum",
  "devdoc": {
    "kind": "dev",
    "methods": {
      "approve(address,uint256)": {
        "details": "See {IERC721-approve}."
      },
      "balanceOf(address)": {
        "details": "See {IERC721-balanceOf}."
      },
      "getApproved(uint256)": {
        "details": "See {IERC721-getApproved}."
      },
      "isApprovedForAll(address,address)": {
        "details": "See {IERC721-isApprovedForAll}."
      },
      "name()": {
        "details": "See {IERC721Metadata-name}."
      },
      "ownerOf(uint256)": {
        "details": "See {IERC721-ownerOf}."
      },
      "safeTransferFrom(address,address,uint256)": {
        "details": "See {IERC721-safeTransferFrom}."
      },
      "safeTransferFrom(address,address,uint256,bytes)": {
        "details": "See {IERC721-safeTransferFrom}."
      },
      "setApprovalForAll(address,bool)": {
        "details": "See {IERC721-setApprovalForAll}."
      },
      "symbol()": {
        "details": "See {IERC721Metadata-symbol}."
      },
      "tokenByIndex(uint256)": {
        "details": "See {IERC721Enumerable-tokenByIndex}."
      },
      "tokenOfOwnerByIndex(address,uint256)": {
        "details": "See {IERC721Enumerable-tokenOfOwnerByIndex}."
      },
      "totalSupply()": {
        "details": "See {IERC721Enumerable-totalSupply}."
      },
      "transferFrom(address,address,uint256)": {
        "details": "See {IERC721-transferFrom}."
      }
    },
    "version": 1
  },
  "userdoc": {
    "kind": "user",
    "methods": {},
    "version": 1
  }
}