{
  "contractName": "RigToken",
  "abi": [
    {
      "inputs": [
        {
          "internalType": "address",
          "name": "_nftAddress",
          "type": "address"
        }
      ],
      "stateMutability": "nonpayable",
      "type": "constructor"
    },
    {
      "anonymous": false,
      "inputs": [
        {
          "indexed": true,
          "internalType": "address",
          "name": "owner",
          "type": "address"
        },
        {
          "indexed": true,
          "internalType": "address",
          "name": "spender",
          "type": "address"
        },
        {
          "indexed": false,
          "internalType": "uint256",
          "name": "value",
          "type": "uint256"
        }
      ],
      "name": "Approval",
      "type": "event"
    },
    {
      "anonymous": false,
      "inputs": [
        {
          "indexed": false,
          "internalType": "uint256",
          "name": "claimId",
          "type": "uint256"
        }
      ],
      "name": "OwnerClaim",
      "type": "event"
    },
    {
      "anonymous": false,
      "inputs": [
        {
          "indexed": false,
          "internalType": "uint256",
          "name": "claimId",
          "type": "uint256"
        },
        {
          "indexed": false,
          "internalType": "address",
          "name": "claimingAddress",
          "type": "address"
        }
      ],
      "name": "PublicClaim",
      "type": "event"
    },
    {
      "anonymous": false,
      "inputs": [
        {
          "indexed": false,
          "internalType": "uint256",
          "name": "claimId",
          "type": "uint256"
        }
      ],
      "name": "SetPrivate",
      "type": "event"
    },
    {
      "anonymous": false,
      "inputs": [
        {
          "indexed": false,
          "internalType": "uint256",
          "name": "claimId",
          "type": "uint256"
        }
      ],
      "name": "SetPublic",
      "type": "event"
    },
    {
      "anonymous": false,
      "inputs": [
        {
          "indexed": true,
          "internalType": "address",
          "name": "from",
          "type": "address"
        },
        {
          "indexed": true,
          "internalType": "address",
          "name": "to",
          "type": "address"
        },
        {
          "indexed": false,
          "internalType": "uint256",
          "name": "value",
          "type": "uint256"
        }
      ],
      "name": "Transfer",
      "type": "event"
    },
    {
      "inputs": [
        {
          "internalType": "address",
          "name": "owner",
          "type": "address"
        },
        {
          "internalType": "address",
          "name": "spender",
          "type": "address"
        }
      ],
      "name": "allowance",
      "outputs": [
        {
          "internalType": "uint256",
          "name": "",
          "type": "uint256"
        }
      ],
      "stateMutability": "view",
      "type": "function",
      "constant": true
    },
    {
      "inputs": [
        {
          "internalType": "address",
          "name": "spender",
          "type": "address"
        },
        {
          "internalType": "uint256",
          "name": "amount",
          "type": "uint256"
        }
      ],
      "name": "approve",
      "outputs": [
        {
          "internalType": "bool",
          "name": "",
          "type": "bool"
        }
      ],
      "stateMutability": "nonpayable",
      "type": "function"
    },
    {
      "inputs": [
        {
          "internalType": "address",
          "name": "account",
          "type": "address"
        }
      ],
      "name": "balanceOf",
      "outputs": [
        {
          "internalType": "uint256",
          "name": "",
          "type": "uint256"
        }
      ],
      "stateMutability": "view",
      "type": "function",
      "constant": true
    },
    {
      "inputs": [],
      "name": "decimals",
      "outputs": [
        {
          "internalType": "uint8",
          "name": "",
          "type": "uint8"
        }
      ],
      "stateMutability": "view",
      "type": "function",
      "constant": true
    },
    {
      "inputs": [
        {
          "internalType": "address",
          "name": "spender",
          "type": "address"
        },
        {
          "internalType": "uint256",
          "name": "subtractedValue",
          "type": "uint256"
        }
      ],
      "name": "decreaseAllowance",
      "outputs": [
        {
          "internalType": "bool",
          "name": "",
          "type": "bool"
        }
      ],
      "stateMutability": "nonpayable",
      "type": "function"
    },
    {
      "inputs": [
        {
          "internalType": "address",
          "name": "spender",
          "type": "address"
        },
        {
          "internalType": "uint256",
          "name": "addedValue",
          "type": "uint256"
        }
      ],
      "name": "increaseAllowance",
      "outputs": [
        {
          "internalType": "bool",
          "name": "",
          "type": "bool"
        }
      ],
      "stateMutability": "nonpayable",
      "type": "function"
    },
    {
      "inputs": [],
      "name": "name",
      "outputs": [
        {
          "internalType": "string",
          "name": "",
          "type": "string"
        }
      ],
      "stateMutability": "view",
      "type": "function",
      "constant": true
    },
    {
      "inputs": [],
      "name": "symbol",
      "outputs": [
        {
          "internalType": "string",
          "name": "",
          "type": "string"
        }
      ],
      "stateMutability": "view",
      "type": "function",
      "constant": true
    },
    {
      "inputs": [],
      "name": "totalSupply",
      "outputs": [
        {
          "internalType": "uint256",
          "name": "",
          "type": "uint256"
        }
      ],
      "stateMutability": "view",
      "type": "function",
      "constant": true
    },
    {
      "inputs": [
        {
          "internalType": "address",
          "name": "to",
          "type": "address"
        },
        {
          "internalType": "uint256",
          "name": "amount",
          "type": "uint256"
        }
      ],
      "name": "transfer",
      "outputs": [
        {
          "internalType": "bool",
          "name": "",
          "type": "bool"
        }
      ],
      "stateMutability": "nonpayable",
      "type": "function"
    },
    {
      "inputs": [
        {
          "internalType": "address",
          "name": "from",
          "type": "address"
        },
        {
          "internalType": "address",
          "name": "to",
          "type": "address"
        },
        {
          "internalType": "uint256",
          "name": "amount",
          "type": "uint256"
        }
      ],
      "name": "transferFrom",
      "outputs": [
        {
          "internalType": "bool",
          "name": "",
          "type": "bool"
        }
      ],
      "stateMutability": "nonpayable",
      "type": "function"
    },
    {
      "inputs": [
        {
          "internalType": "uint256",
          "name": "id",
          "type": "uint256"
        }
      ],
      "name": "initialOwnerClaim",
      "outputs": [],
      "stateMutability": "nonpayable",
      "type": "function"
    },
    {
      "inputs": [
        {
          "internalType": "uint256",
          "name": "id",
          "type": "uint256"
        }
      ],
      "name": "ownerClaim",
      "outputs": [],
      "stateMutability": "nonpayable",
      "type": "function"
    },
    {
      "inputs": [
        {
          "internalType": "uint256",
          "name": "id",
          "type": "uint256"
        }
      ],
      "name": "publicClaim",
      "outputs": [],
      "stateMutability": "nonpayable",
      "type": "function"
    },
    {
      "inputs": [
        {
          "internalType": "uint256",
          "name": "id",
          "type": "uint256"
        }
      ],
      "name": "setPublic",
      "outputs": [],
      "stateMutability": "nonpayable",
      "type": "function"
    },
    {
      "inputs": [
        {
          "internalType": "uint256",
          "name": "id",
          "type": "uint256"
        }
      ],
      "name": "setPrivate",
      "outputs": [],
      "stateMutability": "nonpayable",
      "type": "function"
    },
    {
      "inputs": [
        {
          "internalType": "uint256",
          "name": "id",
          "type": "uint256"
        }
      ],
      "name": "isClaimable",
      "outputs": [
        {
          "internalType": "bool",
          "name": "",
          "type": "bool"
        }
      ],
      "stateMutability": "view",
      "type": "function",
      "constant": true
    },
    {
      "inputs": [
        {
          "internalType": "uint256",
          "name": "id",
          "type": "uint256"
        }
      ],
      "name": "allowsPublic",
      "outputs": [
        {
          "internalType": "bool",
          "name": "",
          "type": "bool"
        }
      ],
      "stateMutability": "view",
      "type": "function",
      "constant": true
    }
  ],
  "bytecode": "0x60806040523480156200001157600080fd5b506040516200296a3803806200296a833981810160405281019062000037919062000250565b6040518060400160405280600881526020017f526967546f6b656e0000000000000000000000000000000000000000000000008152506040518060400160405280600381526020017f52494700000000000000000000000000000000000000000000000000000000008152508160039080519060200190620000bb92919062000189565b508060049080519060200190620000d492919062000189565b5050504260078190555080600660006101000a81548173ffffffffffffffffffffffffffffffffffffffff021916908373ffffffffffffffffffffffffffffffffffffffff160217905550600660009054906101000a900473ffffffffffffffffffffffffffffffffffffffff16600560006101000a81548173ffffffffffffffffffffffffffffffffffffffff021916908373ffffffffffffffffffffffffffffffffffffffff160217905550506200032f565b8280546200019790620002b0565b90600052602060002090601f016020900481019282620001bb576000855562000207565b82601f10620001d657805160ff191683800117855562000207565b8280016001018555821562000207579182015b8281111562000206578251825591602001919060010190620001e9565b5b5090506200021691906200021a565b5090565b5b80821115620002355760008160009055506001016200021b565b5090565b6000815190506200024a8162000315565b92915050565b6000602082840312156200026357600080fd5b6000620002738482850162000239565b91505092915050565b6000620002898262000290565b9050919050565b600073ffffffffffffffffffffffffffffffffffffffff82169050919050565b60006002820490506001821680620002c957607f821691505b60208210811415620002e057620002df620002e6565b5b50919050565b7f4e487b7100000000000000000000000000000000000000000000000000000000600052602260045260246000fd5b62000320816200027c565b81146200032c57600080fd5b50565b61262b806200033f6000396000f3fe608060405234801561001057600080fd5b50600436106101165760003560e01c806389610a09116100a2578063a457c2d711610071578063a457c2d7146102f3578063a9059cbb14610323578063b671629214610353578063dd62ed3e14610383578063e6f1a9b7146103b357610116565b806389610a091461026d57806389cfd71b1461029d5780638f5dac6e146102b957806395d89b41146102d557610116565b8063313ce567116100e9578063313ce567146101b757806331845f7d146101d557806339509351146101f1578063434f48c41461022157806370a082311461023d57610116565b806306fdde031461011b578063095ea7b31461013957806318160ddd1461016957806323b872dd14610187575b600080fd5b6101236103cf565b6040516101309190611ec4565b60405180910390f35b610153600480360381019061014e9190611c25565b610461565b6040516101609190611ea9565b60405180910390f35b610171610484565b60405161017e9190612046565b60405180910390f35b6101a1600480360381019061019c9190611bd6565b61048e565b6040516101ae9190611ea9565b60405180910390f35b6101bf6104bd565b6040516101cc919061208a565b60405180910390f35b6101ef60048036038101906101ea9190611c61565b6104c6565b005b61020b60048036038101906102069190611c25565b610647565b6040516102189190611ea9565b60405180910390f35b61023b60048036038101906102369190611c61565b6106f1565b005b61025760048036038101906102529190611b48565b61097e565b6040516102649190612046565b60405180910390f35b61028760048036038101906102829190611c61565b6109c6565b6040516102949190611ea9565b60405180910390f35b6102b760048036038101906102b29190611c61565b610aac565b005b6102d360048036038101906102ce9190611c61565b610c2d565b005b6102dd610ebc565b6040516102ea9190611ec4565b60405180910390f35b61030d60048036038101906103089190611c25565b610f4e565b60405161031a9190611ea9565b60405180910390f35b61033d60048036038101906103389190611c25565b611038565b60405161034a9190611ea9565b60405180910390f35b61036d60048036038101906103689190611c61565b61105b565b60405161037a9190611ea9565b60405180910390f35b61039d60048036038101906103989190611b9a565b611088565b6040516103aa9190612046565b60405180910390f35b6103cd60048036038101906103c89190611c61565b61110f565b005b6060600380546103de9061222a565b80601f016020809104026020016040519081016040528092919081815260200182805461040a9061222a565b80156104575780601f1061042c57610100808354040283529160200191610457565b820191906000526020600020905b81548152906001019060200180831161043a57829003601f168201915b5050505050905090565b60008061046c6113cb565b90506104798185856113d3565b600191505092915050565b6000600254905090565b6000806104996113cb565b90506104a685828561159e565b6104b185858561162a565b60019150509392505050565b60006012905090565b600560009054906101000a900473ffffffffffffffffffffffffffffffffffffffff1673ffffffffffffffffffffffffffffffffffffffff16636352211e826040518263ffffffff1660e01b81526004016105219190612046565b60206040518083038186803b15801561053957600080fd5b505afa15801561054d573d6000803e3d6000fd5b505050506040513d601f19601f820116820180604052508101906105719190611b71565b73ffffffffffffffffffffffffffffffffffffffff163373ffffffffffffffffffffffffffffffffffffffff16146105de576040517f08c379a00000000000000000000000000000000000000000000000000000000081526004016105d590611f26565b60405180910390fd5b60016008600083815260200190815260200160002060000160006101000a81548160ff0219169083151502179055507f963c7745a6b7a37e8034dc5de74169f884f387004c2006d52acd85d9638faea88160405161063c9190612046565b60405180910390a150565b6000806106526113cb565b90506106e6818585600160008673ffffffffffffffffffffffffffffffffffffffff1673ffffffffffffffffffffffffffffffffffffffff16815260200190815260200160002060008973ffffffffffffffffffffffffffffffffffffffff1673ffffffffffffffffffffffffffffffffffffffff168152602001908152602001600020546106e191906120c1565b6113d3565b600191505092915050565b600560009054906101000a900473ffffffffffffffffffffffffffffffffffffffff1673ffffffffffffffffffffffffffffffffffffffff16636352211e826040518263ffffffff1660e01b815260040161074c9190612046565b60206040518083038186803b15801561076457600080fd5b505afa158015610778573d6000803e3d6000fd5b505050506040513d601f19601f8201168201806040525081019061079c9190611b71565b73ffffffffffffffffffffffffffffffffffffffff163373ffffffffffffffffffffffffffffffffffffffff1614610809576040517f08c379a000000000000000000000000000000000000000000000000000000000815260040161080090611f86565b60405180910390fd5b600560009054906101000a900473ffffffffffffffffffffffffffffffffffffffff1673ffffffffffffffffffffffffffffffffffffffff1663f8549af9826040518263ffffffff1660e01b81526004016108649190612046565b60206040518083038186803b15801561087c57600080fd5b505afa158015610890573d6000803e3d6000fd5b505050506040513d601f19601f820116820180604052508101906108b49190611c8a565b60086000838152602001908152602001600020600101546108d591906120c1565b421015610917576040517f08c379a000000000000000000000000000000000000000000000000000000000815260040161090e90611fa6565b60405180910390fd5b61092933610924836118ab565b61198a565b4260086000838152602001908152602001600020600101819055507fc3d953301c4bfb3eb824eb5a0e4d09b3767764b2af8fde7e72c02d8523e14bf7816040516109739190612046565b60405180910390a150565b60008060008373ffffffffffffffffffffffffffffffffffffffff1673ffffffffffffffffffffffffffffffffffffffff168152602001908152602001600020549050919050565b6000600560009054906101000a900473ffffffffffffffffffffffffffffffffffffffff1673ffffffffffffffffffffffffffffffffffffffff1663f8549af9836040518263ffffffff1660e01b8152600401610a239190612046565b60206040518083038186803b158015610a3b57600080fd5b505afa158015610a4f573d6000803e3d6000fd5b505050506040513d601f19601f82011682018060405250810190610a739190611c8a565b6008600084815260200190815260200160002060010154610a9491906120c1565b421015610aa2576000610aa5565b60015b9050919050565b600560009054906101000a900473ffffffffffffffffffffffffffffffffffffffff1673ffffffffffffffffffffffffffffffffffffffff16636352211e826040518263ffffffff1660e01b8152600401610b079190612046565b60206040518083038186803b158015610b1f57600080fd5b505afa158015610b33573d6000803e3d6000fd5b505050506040513d601f19601f82011682018060405250810190610b579190611b71565b73ffffffffffffffffffffffffffffffffffffffff163373ffffffffffffffffffffffffffffffffffffffff1614610bc4576040517f08c379a0000000000000000000000000000000000000000000000000000000008152600401610bbb90611f26565b60405180910390fd5b60006008600083815260200190815260200160002060000160006101000a81548160ff0219169083151502179055507fd72375f4001db0f8b758ea9016f4008ac0ee9b5f0f03bdfa6e66c246c35c10b981604051610c229190612046565b60405180910390a150565b6008600082815260200190815260200160002060000160009054906101000a900460ff16610c90576040517f08c379a0000000000000000000000000000000000000000000000000000000008152600401610c8790611f86565b60405180910390fd5b600560009054906101000a900473ffffffffffffffffffffffffffffffffffffffff1673ffffffffffffffffffffffffffffffffffffffff1663f8549af9826040518263ffffffff1660e01b8152600401610ceb9190612046565b60206040518083038186803b158015610d0357600080fd5b505afa158015610d17573d6000803e3d6000fd5b505050506040513d601f19601f82011682018060405250810190610d3b9190611c8a565b6008600083815260200190815260200160002060010154610d5c91906120c1565b421015610d9e576040517f08c379a0000000000000000000000000000000000000000000000000000000008152600401610d9590611fa6565b60405180910390fd5b610db033610dab836118ab565b61198a565b610e65600560009054906101000a900473ffffffffffffffffffffffffffffffffffffffff1673ffffffffffffffffffffffffffffffffffffffff16636352211e836040518263ffffffff1660e01b8152600401610e0e9190612046565b60206040518083038186803b158015610e2657600080fd5b505afa158015610e3a573d6000803e3d6000fd5b505050506040513d601f19601f82011682018060405250810190610e5e9190611b71565b600161198a565b4260086000838152602001908152602001600020600101819055507f4d21302cab61848f7d074dafb7db33d06b128bd8cb6bf6b0feb7c9bf251334cf8133604051610eb1929190612061565b60405180910390a150565b606060048054610ecb9061222a565b80601f0160208091040260200160405190810160405280929190818152602001828054610ef79061222a565b8015610f445780601f10610f1957610100808354040283529160200191610f44565b820191906000526020600020905b815481529060010190602001808311610f2757829003601f168201915b5050505050905090565b600080610f596113cb565b90506000600160008373ffffffffffffffffffffffffffffffffffffffff1673ffffffffffffffffffffffffffffffffffffffff16815260200190815260200160002060008673ffffffffffffffffffffffffffffffffffffffff1673ffffffffffffffffffffffffffffffffffffffff1681526020019081526020016000205490508381101561101f576040517f08c379a000000000000000000000000000000000000000000000000000000000815260040161101690612006565b60405180910390fd5b61102c82868684036113d3565b60019250505092915050565b6000806110436113cb565b905061105081858561162a565b600191505092915050565b60006008600083815260200190815260200160002060000160009054906101000a900460ff169050919050565b6000600160008473ffffffffffffffffffffffffffffffffffffffff1673ffffffffffffffffffffffffffffffffffffffff16815260200190815260200160002060008373ffffffffffffffffffffffffffffffffffffffff1673ffffffffffffffffffffffffffffffffffffffff16815260200190815260200160002054905092915050565b600560009054906101000a900473ffffffffffffffffffffffffffffffffffffffff1673ffffffffffffffffffffffffffffffffffffffff16636352211e826040518263ffffffff1660e01b815260040161116a9190612046565b60206040518083038186803b15801561118257600080fd5b505afa158015611196573d6000803e3d6000fd5b505050506040513d601f19601f820116820180604052508101906111ba9190611b71565b73ffffffffffffffffffffffffffffffffffffffff163373ffffffffffffffffffffffffffffffffffffffff1614611227576040517f08c379a000000000000000000000000000000000000000000000000000000000815260040161121e90611f86565b60405180910390fd5b600560009054906101000a900473ffffffffffffffffffffffffffffffffffffffff1673ffffffffffffffffffffffffffffffffffffffff1663f8549af9826040518263ffffffff1660e01b81526004016112829190612046565b60206040518083038186803b15801561129a57600080fd5b505afa1580156112ae573d6000803e3d6000fd5b505050506040513d601f19601f820116820180604052508101906112d29190611c8a565b60086000838152602001908152602001600020600101546112f391906120c1565b421015611335576040517f08c379a000000000000000000000000000000000000000000000000000000000815260040161132c90611fa6565b60405180910390fd5b61134733611342836118ab565b61198a565b60006008600083815260200190815260200160002060000160006101000a81548160ff0219169083151502179055504260086000838152602001908152602001600020600101819055507fc3d953301c4bfb3eb824eb5a0e4d09b3767764b2af8fde7e72c02d8523e14bf7816040516113c09190612046565b60405180910390a150565b600033905090565b600073ffffffffffffffffffffffffffffffffffffffff168373ffffffffffffffffffffffffffffffffffffffff161415611443576040517f08c379a000000000000000000000000000000000000000000000000000000000815260040161143a90611fe6565b60405180910390fd5b600073ffffffffffffffffffffffffffffffffffffffff168273ffffffffffffffffffffffffffffffffffffffff1614156114b3576040517f08c379a00000000000000000000000000000000000000000000000000000000081526004016114aa90611f06565b60405180910390fd5b80600160008573ffffffffffffffffffffffffffffffffffffffff1673ffffffffffffffffffffffffffffffffffffffff16815260200190815260200160002060008473ffffffffffffffffffffffffffffffffffffffff1673ffffffffffffffffffffffffffffffffffffffff168152602001908152602001600020819055508173ffffffffffffffffffffffffffffffffffffffff168373ffffffffffffffffffffffffffffffffffffffff167f8c5be1e5ebec7d5bd14f71427d1e84f3dd0314c0f7b2291e5b200ac8c7c3b925836040516115919190612046565b60405180910390a3505050565b60006115aa8484611088565b90507fffffffffffffffffffffffffffffffffffffffffffffffffffffffffffffffff81146116245781811015611616576040517f08c379a000000000000000000000000000000000000000000000000000000000815260040161160d90611f46565b60405180910390fd5b61162384848484036113d3565b5b50505050565b600073ffffffffffffffffffffffffffffffffffffffff168373ffffffffffffffffffffffffffffffffffffffff16141561169a576040517f08c379a000000000000000000000000000000000000000000000000000000000815260040161169190611fc6565b60405180910390fd5b600073ffffffffffffffffffffffffffffffffffffffff168273ffffffffffffffffffffffffffffffffffffffff16141561170a576040517f08c379a000000000000000000000000000000000000000000000000000000000815260040161170190611ee6565b60405180910390fd5b611715838383611aea565b60008060008573ffffffffffffffffffffffffffffffffffffffff1673ffffffffffffffffffffffffffffffffffffffff1681526020019081526020016000205490508181101561179b576040517f08c379a000000000000000000000000000000000000000000000000000000000815260040161179290611f66565b60405180910390fd5b8181036000808673ffffffffffffffffffffffffffffffffffffffff1673ffffffffffffffffffffffffffffffffffffffff16815260200190815260200160002081905550816000808573ffffffffffffffffffffffffffffffffffffffff1673ffffffffffffffffffffffffffffffffffffffff168152602001908152602001600020600082825461182e91906120c1565b925050819055508273ffffffffffffffffffffffffffffffffffffffff168473ffffffffffffffffffffffffffffffffffffffff167fddf252ad1be2c89b69c2b068fc378daa952ba7f163c4a11628f55a4df523b3ef846040516118929190612046565b60405180910390a36118a5848484611aef565b50505050565b6000670de0b6b3a764000042600754600560009054906101000a900473ffffffffffffffffffffffffffffffffffffffff1673ffffffffffffffffffffffffffffffffffffffff166304eaa113866040518263ffffffff1660e01b81526004016119159190612046565b60206040518083038186803b15801561192d57600080fd5b505afa158015611941573d6000803e3d6000fd5b505050506040513d601f19601f820116820180604052508101906119659190611c8a565b61196f9190612148565b6119799190612117565b6119839190612148565b9050919050565b600073ffffffffffffffffffffffffffffffffffffffff168273ffffffffffffffffffffffffffffffffffffffff1614156119fa576040517f08c379a00000000000000000000000000000000000000000000000000000000081526004016119f190612026565b60405180910390fd5b611a0660008383611aea565b8060026000828254611a1891906120c1565b92505081905550806000808473ffffffffffffffffffffffffffffffffffffffff1673ffffffffffffffffffffffffffffffffffffffff1681526020019081526020016000206000828254611a6d91906120c1565b925050819055508173ffffffffffffffffffffffffffffffffffffffff16600073ffffffffffffffffffffffffffffffffffffffff167fddf252ad1be2c89b69c2b068fc378daa952ba7f163c4a11628f55a4df523b3ef83604051611ad29190612046565b60405180910390a3611ae660008383611aef565b5050565b505050565b505050565b600081359050611b03816125c7565b92915050565b600081519050611b18816125c7565b92915050565b600081359050611b2d816125de565b92915050565b600081519050611b42816125de565b92915050565b600060208284031215611b5a57600080fd5b6000611b6884828501611af4565b91505092915050565b600060208284031215611b8357600080fd5b6000611b9184828501611b09565b91505092915050565b60008060408385031215611bad57600080fd5b6000611bbb85828601611af4565b9250506020611bcc85828601611af4565b9150509250929050565b600080600060608486031215611beb57600080fd5b6000611bf986828701611af4565b9350506020611c0a86828701611af4565b9250506040611c1b86828701611b1e565b9150509250925092565b60008060408385031215611c3857600080fd5b6000611c4685828601611af4565b9250506020611c5785828601611b1e565b9150509250929050565b600060208284031215611c7357600080fd5b6000611c8184828501611b1e565b91505092915050565b600060208284031215611c9c57600080fd5b6000611caa84828501611b33565b91505092915050565b611cbc816121a2565b82525050565b611ccb816121b4565b82525050565b6000611cdc826120a5565b611ce681856120b0565b9350611cf68185602086016121f7565b611cff816122e9565b840191505092915050565b6000611d176023836120b0565b9150611d22826122fa565b604082019050919050565b6000611d3a6022836120b0565b9150611d4582612349565b604082019050919050565b6000611d5d601e836120b0565b9150611d6882612398565b602082019050919050565b6000611d80601d836120b0565b9150611d8b826123c1565b602082019050919050565b6000611da36026836120b0565b9150611dae826123ea565b604082019050919050565b6000611dc6601b836120b0565b9150611dd182612439565b602082019050919050565b6000611de9602e836120b0565b9150611df482612462565b604082019050919050565b6000611e0c6025836120b0565b9150611e17826124b1565b604082019050919050565b6000611e2f6024836120b0565b9150611e3a82612500565b604082019050919050565b6000611e526025836120b0565b9150611e5d8261254f565b604082019050919050565b6000611e75601f836120b0565b9150611e808261259e565b602082019050919050565b611e94816121e0565b82525050565b611ea3816121ea565b82525050565b6000602082019050611ebe6000830184611cc2565b92915050565b60006020820190508181036000830152611ede8184611cd1565b905092915050565b60006020820190508181036000830152611eff81611d0a565b9050919050565b60006020820190508181036000830152611f1f81611d2d565b9050919050565b60006020820190508181036000830152611f3f81611d50565b9050919050565b60006020820190508181036000830152611f5f81611d73565b9050919050565b60006020820190508181036000830152611f7f81611d96565b9050919050565b60006020820190508181036000830152611f9f81611db9565b9050919050565b60006020820190508181036000830152611fbf81611ddc565b9050919050565b60006020820190508181036000830152611fdf81611dff565b9050919050565b60006020820190508181036000830152611fff81611e22565b9050919050565b6000602082019050818103600083015261201f81611e45565b9050919050565b6000602082019050818103600083015261203f81611e68565b9050919050565b600060208201905061205b6000830184611e8b565b92915050565b60006040820190506120766000830185611e8b565b6120836020830184611cb3565b9392505050565b600060208201905061209f6000830184611e9a565b92915050565b600081519050919050565b600082825260208201905092915050565b60006120cc826121e0565b91506120d7836121e0565b9250827fffffffffffffffffffffffffffffffffffffffffffffffffffffffffffffffff0382111561210c5761210b61225c565b5b828201905092915050565b6000612122826121e0565b915061212d836121e0565b92508261213d5761213c61228b565b5b828204905092915050565b6000612153826121e0565b915061215e836121e0565b9250817fffffffffffffffffffffffffffffffffffffffffffffffffffffffffffffffff04831182151516156121975761219661225c565b5b828202905092915050565b60006121ad826121c0565b9050919050565b60008115159050919050565b600073ffffffffffffffffffffffffffffffffffffffff82169050919050565b6000819050919050565b600060ff82169050919050565b60005b838110156122155780820151818401526020810190506121fa565b83811115612224576000848401525b50505050565b6000600282049050600182168061224257607f821691505b60208210811415612256576122556122ba565b5b50919050565b7f4e487b7100000000000000000000000000000000000000000000000000000000600052601160045260246000fd5b7f4e487b7100000000000000000000000000000000000000000000000000000000600052601260045260246000fd5b7f4e487b7100000000000000000000000000000000000000000000000000000000600052602260045260246000fd5b6000601f19601f8301169050919050565b7f45524332303a207472616e7366657220746f20746865207a65726f206164647260008201527f6573730000000000000000000000000000000000000000000000000000000000602082015250565b7f45524332303a20617070726f766520746f20746865207a65726f20616464726560008201527f7373000000000000000000000000000000000000000000000000000000000000602082015250565b7f6f6e6c79206f776e65722063616e206368616e67652073657474696e67730000600082015250565b7f45524332303a20696e73756666696369656e7420616c6c6f77616e6365000000600082015250565b7f45524332303a207472616e7366657220616d6f756e742065786365656473206260008201527f616c616e63650000000000000000000000000000000000000000000000000000602082015250565b7f6f6e6c79206f776e65722063616e20636c61696d20746f6b656e730000000000600082015250565b7f6e6f7420656e6f7567682074696d652068617320706173742073696e6365207460008201527f6865206c61737420636c61696d2e000000000000000000000000000000000000602082015250565b7f45524332303a207472616e736665722066726f6d20746865207a65726f20616460008201527f6472657373000000000000000000000000000000000000000000000000000000602082015250565b7f45524332303a20617070726f76652066726f6d20746865207a65726f2061646460008201527f7265737300000000000000000000000000000000000000000000000000000000602082015250565b7f45524332303a2064656372656173656420616c6c6f77616e63652062656c6f7760008201527f207a65726f000000000000000000000000000000000000000000000000000000602082015250565b7f45524332303a206d696e7420746f20746865207a65726f206164647265737300600082015250565b6125d0816121a2565b81146125db57600080fd5b50565b6125e7816121e0565b81146125f257600080fd5b5056fea2646970667358221220a1aeedc3b036de4135fb8d2c1aac8dfa2ef39fd4035289bc36be3933c35ee62e64736f6c63430008020033",
  "immutableReferences": {},
  "source": "// SPDX-License-Identifier: MIT\npragma solidity 0.8.2;\n\nimport \"@openzeppelin/contracts/token/ERC20/ERC20.sol\";\nimport \"./RigNFT.sol\";\n\ncontract RigToken is ERC20 {\n    RigNFT rig;\n    address nftAddress;\n    uint startBlock;\n    constructor(address _nftAddress) ERC20(\"RigToken\", \"RIG\") {\n        startBlock = block.timestamp;\n        nftAddress = _nftAddress;\n        rig = RigNFT(nftAddress);\n    }\n    struct Claim {\n        bool allowsPublic;\n        uint claimTimestamp;\n    }\n    mapping(uint => Claim) private claims;\n\n    event PublicClaim (\n        uint256 claimId,\n        address claimingAddress\n    );\n    event OwnerClaim (\n        uint256 claimId\n    );\n    event SetPublic (\n        uint256 claimId\n    );\n    event SetPrivate (\n        uint256 claimId\n    );\n\n    function initialOwnerClaim (uint256 id) public {\n        require(msg.sender == rig.ownerOf(id), \"only owner can claim tokens\");\n        //attempts to enforce a period between potential claims.\n        require(block.timestamp >= claims[id].claimTimestamp + rig.periodOf(id), \"not enough time has past since the last claim.\");\n        _mint(msg.sender, mintAmount(id));\n        claims[id].allowsPublic = false;\n        claims[id].claimTimestamp = block.timestamp;\n        emit OwnerClaim(id);\n    }\n\n    function ownerClaim (uint256 id) public {\n        require(msg.sender == rig.ownerOf(id), \"only owner can claim tokens\");\n        //attempts to enforce a period between potential claims.\n        require(block.timestamp >= claims[id].claimTimestamp + rig.periodOf(id), \"not enough time has past since the last claim.\");\n        _mint(msg.sender, mintAmount(id));\n        claims[id].claimTimestamp = block.timestamp;\n        emit OwnerClaim(id);\n    }\n\n    function publicClaim (uint256 id) public {\n        require(claims[id].allowsPublic, \"only owner can claim tokens\");\n        //attempts to enforce a period between potential claims.\n        require(block.timestamp >= claims[id].claimTimestamp + rig.periodOf(id), \"not enough time has past since the last claim.\");\n        _mint(msg.sender, mintAmount(id));\n        _mint(rig.ownerOf(id), 1);\n        claims[id].claimTimestamp = block.timestamp;\n        emit PublicClaim(id, msg.sender);\n    }\n\n    function setPublic(uint256 id) public {\n        require(msg.sender == rig.ownerOf(id), \"only owner can change settings\");\n        claims[id].allowsPublic = true;\n        emit SetPublic(id);\n    }\n    function setPrivate(uint256 id) public {\n        require(msg.sender == rig.ownerOf(id), \"only owner can change settings\");\n        claims[id].allowsPublic = false;\n        emit SetPrivate(id);\n    }\n    function isClaimable(uint256 id) public view returns (bool) {\n        return block.timestamp >= claims[id].claimTimestamp + rig.periodOf(id) ? true : false;\n    }\n    function allowsPublic(uint256 id) public view returns (bool) {\n        return claims[id].allowsPublic;\n    }\n    /*\n    * @dev This could be unsafe, but seems to be the only reliable way to cheaply do this atm.\n    * @dev Just need a minor decay to occur as time passes and this is an attempt to create that.\n    *\n    * @notice please read deeper into the following for more info.\n    *\n    * The current block timestamp must be strictly larger than the\n    * timestamp of the last block, but the only guarantee is that\n    * it will be somewhere between the timestamps of two consecutive\n    * blocks in the canonical chain.\n    *\n    * https://docs.soliditylang.org/en/latest/units-and-global-variables.html?highlight=block.timestamp\n    */\n\n    function mintAmount(uint256 id) private view returns (uint) {\n        return ((rig.powerOf(id) * startBlock) / block.timestamp * 10 ** 18);\n    }\n}\n",
  "sourcePath": "/Users/undefined/Code/rigcoin/contracts/RigToken.sol",
  "compiler": {
    "name": "solc",
    "version": "0.8.2+commit.661d1103.Emscripten.clang"
  },
  "schemaVersion": "3.4.4",
  "updatedAt": "2022-03-07T14:59:01.462Z",
  "networkType": "ethereum",
  "devdoc": {
    "kind": "dev",
    "methods": {
      "allowance(address,address)": {
        "details": "See {IERC20-allowance}."
      },
      "approve(address,uint256)": {
        "details": "See {IERC20-approve}. NOTE: If `amount` is the maximum `uint256`, the allowance is not updated on `transferFrom`. This is semantically equivalent to an infinite approval. Requirements: - `spender` cannot be the zero address."
      },
      "balanceOf(address)": {
        "details": "See {IERC20-balanceOf}."
      },
      "decimals()": {
        "details": "Returns the number of decimals used to get its user representation. For example, if `decimals` equals `2`, a balance of `505` tokens should be displayed to a user as `5.05` (`505 / 10 ** 2`). Tokens usually opt for a value of 18, imitating the relationship between Ether and Wei. This is the value {ERC20} uses, unless this function is overridden; NOTE: This information is only used for _display_ purposes: it in no way affects any of the arithmetic of the contract, including {IERC20-balanceOf} and {IERC20-transfer}."
      },
      "decreaseAllowance(address,uint256)": {
        "details": "Atomically decreases the allowance granted to `spender` by the caller. This is an alternative to {approve} that can be used as a mitigation for problems described in {IERC20-approve}. Emits an {Approval} event indicating the updated allowance. Requirements: - `spender` cannot be the zero address. - `spender` must have allowance for the caller of at least `subtractedValue`."
      },
      "increaseAllowance(address,uint256)": {
        "details": "Atomically increases the allowance granted to `spender` by the caller. This is an alternative to {approve} that can be used as a mitigation for problems described in {IERC20-approve}. Emits an {Approval} event indicating the updated allowance. Requirements: - `spender` cannot be the zero address."
      },
      "name()": {
        "details": "Returns the name of the token."
      },
      "symbol()": {
        "details": "Returns the symbol of the token, usually a shorter version of the name."
      },
      "totalSupply()": {
        "details": "See {IERC20-totalSupply}."
      },
      "transfer(address,uint256)": {
        "details": "See {IERC20-transfer}. Requirements: - `to` cannot be the zero address. - the caller must have a balance of at least `amount`."
      },
      "transferFrom(address,address,uint256)": {
        "details": "See {IERC20-transferFrom}. Emits an {Approval} event indicating the updated allowance. This is not required by the EIP. See the note at the beginning of {ERC20}. NOTE: Does not update the allowance if the current allowance is the maximum `uint256`. Requirements: - `from` and `to` cannot be the zero address. - `from` must have a balance of at least `amount`. - the caller must have allowance for ``from``'s tokens of at least `amount`."
      }
    },
    "version": 1
  },
  "userdoc": {
    "kind": "user",
    "methods": {},
    "version": 1
  }
}